:1000000000040020D9000000CD000000CD00000059
:1000100080B483B000AF4EF20813C4F20F034FF068
:1000200020021A604FF000037B6003E07B6803F15D
:1000300001037B607B68C72BF8D94FF4A843C4F257
:1000400002034FF4A842C4F20202126842F008020E
:100050001A6045F21C53C4F2020345F21C52C4F26A
:100060000202126842F008021A6045F2FC33C4F240
:10007000020345F2FC32C4F20202126822F00802C6
:100080001A604FF000037B6003E07B6803F101031B
:100090007B607A684CF24F339A42F6D945F2FC33D2
:1000A000C4F2020345F2FC32C4F20202126842F0CA
:1000B00008021A607B6803E07B6803F101037B6040
:1000C0007A684CF24F339A42F6D9CEE780B500AF4A
:1000D00000F002F880BD00BF80B586B000AF40F2EE
:1000E0000002C2F2000240F20003C2F20003D31A7F
:1000F0007B6040F28813C0F200037B6140F2000392
:10010000C2F200033B614FF00003FB600FE07B692C
:100110001A783B691A703B6903F101033B617B6903
:1001200003F101037B61FB6803F10103FB60FA68E3
:100130007B689A42EBD340F20042C2F2000240F2E6
:100140000003C2F20003D31A3B6040F20003C2F284
:1001500000033B614FF00003BB600BE03B694FF0D5
:1001600000021A703B6903F101033B61BB6803F1B4
:100170000103BB60BA683B689A42EFD3FFF748FFC0
:0801800007F11807BD4680BD20
:00000001FF
