:020000040800F2
:100000000C100020DD0000081D000008D1000008D1
:10001000D1000008D1000008D100000880B400AF72
:10002000BD4680BC704700BF80B483B000AF41F2D2
:100030001803C4F2020341F21802C4F20202126869
:1000400042F004021A6040F60403C4F2010340F6D1
:100050000402C4F20102126822F470021A6040F62F
:100060000403C4F2010340F60402C4F20102126860
:1000700042F400121A6040F20003C2F200031B684F
:100080001A8822F400521A804FF000037B6003E0CC
:100090007B6803F101037B607A684CF24F339A422C
:1000A000F6DD40F20003C2F200031B681A8842F436
:1000B00000521A804FF000033B6003E03B6803F1FD
:1000C00001033B603A684CF24F339A42F6DDD2E7C7
:1000D00080B500AF00F002F880BD00BF80B586B0EB
:1000E00000AF40F20C02C2F2000240F20003C2F282
:1000F0000003D31A7B6040F29013C0F600037B61CB
:1001000040F20003C2F200033B614FF00003FB60CA
:100110000FE07B691A783B691A703B6903F10103B0
:100120003B617B6903F101037B61FB6803F1010320
:10013000FB60FA687B689A42EBD340F20C02C2F291
:10014000000240F20C03C2F20003D31A3B604FF0EE
:100150000003BB600BE03B694FF000021A703B6983
:1001600003F101033B61BB6803F10103BB60BA68A3
:100170003B689A42EFD3FFF757FF07F11807BD46D8
:1001800080BD00BF01020304050000000000000064
:0C0190000C0801400102030405000000FF
:0400000508000000EF
:00000001FF
