:020000040800F2
:1000000000500020C1010008110200081102000880
:10001000110200081102000811020008000000008F
:1000200000000000000000000000000011020008B5
:10003000110200080000000011020008110200086F
:100040001102000811020008110200081102000844
:100050001102000811020008110200081102000834
:100060001102000811020008110200081102000824
:100070001102000811020008110200081102000814
:100080001102000811020008110200081102000804
:1000900011020008110200081102000811020008F4
:1000A00011020008110200081102000811020008E4
:1000B00011020008110200081102000811020008D4
:1000C00011020008110200081102000811020008C4
:1000D00011020008110200081102000811020008B4
:1000E00011020008110200080000000011020008BF
:1000F0001102000811020008110200081102000894
:100100001102000811020008110200081102000883
:100110001102000811020008110200081102000873
:100120001102000811020008110200081102000863
:1001300010B5054C237833B9044B13B10448AFF321
:1001400000800123237010BD040000200000000087
:100150005C02000808B5034B1BB103490348AFF329
:10016000008008BD00000000080000205C020008BC
:100170000F4A936943F0040393610E4BD3F80428AC
:1001800022F47002C3F80428D3F8042842F40012C1
:10019000C3F80428084B1B681A8842F400521A80DE
:1001A0001A886FF34D321A80044A013AFDD1F3E701
:1001B00000100240000001400000002020A10700C4
:1001C0000D488546AFF300800C480D490D4A0023C9
:1001D00002E0D458C4500433C4188C42F9D30A4AFC
:1001E0000A4C002301E013600432A242FBD300F06A
:1001F00011F8FFF7BDFFFEE70050002000000020CF
:10020000040000207C0200080400002020000020E0
:10021000FEE7000070B500260C4D0D4C641BA410C9
:10022000A64209D100F01AF800260A4D0A4C641BB8
:10023000A410A64205D170BD55F8043B984701367D
:10024000EEE755F8043B98470136F2E774020008E0
:10025000740200087402000878020008F8B500BFB4
:10026000F8BC08BC9E467047F8B500BFF8BC08BC97
:040270009E467047EF
:040274005501000828
:040278003101000848
:04027C000C08014029
:04000005080001C12D
:00000001FF
