:020000040800F2
:100000000050002075010008C5010008C501000866
:10001000C5010008C5010008C50100080000000076
:10002000000000000000000000000000C501000802
:10003000C501000800000000C5010008C501000856
:10004000C5010008C5010008C5010008C501000878
:10005000C5010008C5010008C5010008C501000868
:10006000C5010008C5010008C5010008C501000858
:10007000C5010008C5010008C5010008C501000848
:10008000C5010008C5010008C5010008C501000838
:10009000C5010008C5010008C5010008C501000828
:1000A000C5010008C5010008C5010008C501000818
:1000B000C5010008C5010008C5010008C501000808
:1000C000C5010008C5010008C5010008C5010008F8
:1000D000C5010008C5010008C5010008C5010008E8
:1000E000C5010008C501000800000000C5010008A6
:1000F000C5010008C5010008C5010008C5010008C8
:10010000C5010008C5010008C5010008C5010008B7
:10011000C5010008C5010008C5010008C5010008A7
:10012000C5010008C5010008C5010008C501000897
:1001300010B5054C237833B9044B13B10448AFF321
:1001400000800123237010BD00000020000000008B
:100150001002000808B5034B1BB103490348AFF375
:10016000008008BD0000000004000020100200080C
:10017000FEE700BF0D488546AFF300800C480D49EF
:100180000D4A002302E0D458C4500433C4188C42F2
:10019000F9D30A4A0A4C002301E013600432A24258
:1001A000FBD300F011F8FFF7E3FFFEE7005000205B
:1001B00000000020000000203002000800000020A5
:1001C0001C000020FEE7000070B500260C4D0D4C11
:1001D000641BA410A64209D100F01AF800260A4DAB
:1001E0000A4C641BA410A64205D170BD55F8043B0F
:1001F00098470136EEE755F8043B98470136F2E799
:100200002802000828020008280200082C02000822
:10021000F8B500BFF8BC08BC9E467047F8B500BFF3
:08022000F8BC08BC9E467047C3
:040228005501000874
:04022C003101000894
:040000050800017579
:00000001FF
